:100000000C945E000C9486000C9486000C94860080
:100010000C9486000C9486000C9486000C94860048
:100020000C9486000C9486000C9486000C94860038
:100030000C9486000C9486000C9486000C94860028
:100040000C9431030C9486000C9486000C9486006A
:100050000C9486000C9486000C9486000C94860008
:100060000C9486000C9486000000000024002700F9
:100070002A0000000000250028002B0004040404CE
:100080000404040402020202020203030303030342
:10009000010204081020408001020408102001021F
:1000A00004081020000000080002010000030407FB
:1000B00000000000000000004506570611241FBE86
:1000C000CFEFD8E0DEBFCDBF11E0A0E0B1E0EEE5BC
:1000D000F3E102C005900D92AC36B107D9F721E0EB
:1000E000ACE6B1E001C01D92AF38B207E1F710E015
:1000F000CDE5D0E004C02197FE010E94A107CC35D8
:10010000D107C9F70E947B030C94A2090C9400004C
:10011000089590E0FC01EC55FF4F2491FC01E0575D
:10012000FF4F3491FC01E458FF4FE491EE23C9F0F6
:10013000222339F0233001F1A8F4213019F12230C3
:1001400029F1F0E0EE0FFF1FEE58FF4FA591B4919B
:100150008FB7F894EC91611126C030953E233C9303
:100160008FBF08952730A9F02830C9F0243049F70F
:10017000809180008F7D03C0809180008F77809375
:100180008000DFCF84B58F7784BDDBCF84B58F7DD2
:10019000FBCF8091B0008F778093B000D2CF809159
:1001A000B0008F7DF9CF3E2BDACFCF93DF9390E075
:1001B000FC01E057FF4F249184589F4FFC0184912C
:1001C0008823C9F090E0880F991FFC01E859FF4F80
:1001D000A591B491FC01EE58FF4FC591D4916111E6
:1001E0000DC09FB7F8948C91209582238C938881C1
:1001F000282328839FBFDF91CF910895623051F467
:100200009FB7F8943C91822F809583238C93E8814B
:100210002E2BEFCF8FB7F894EC912E2B2C938FBF12
:10022000EACF1F93CF93DF93182FEB0161E00E9479
:10023000D500209739F460E0812FDF91CF911F9195
:100240000C948900CF3FD10511F461E0F5CFE12F87
:10025000F0E0EC55FF4FE491E33031F140F4E13050
:10026000B1F0E230E1F0C038D1057CF7E4CFE730FF
:1002700029F1E83059F1E430B1F7809180008062D3
:1002800080938000D0938B00C0938A0004C084B513
:10029000806884BDC7BDDF91CF911F91089584B55B
:1002A000806284BDC8BDF7CF809180008068809354
:1002B0008000D0938900C0938800EDCF8091B0007A
:1002C00080688093B000C093B300E5CF8091B00008
:1002D00080628093B000C093B400DDCF8E50806404
:1002E00080937C0080917A00806480937A00809172
:1002F0007A0086FDFCCF8091780090917900089576
:100300003FB7F89480916D0190916E01A0916F01BB
:10031000B091700126B5A89B05C02F3F19F001963A
:10032000A11DB11D3FBFBA2FA92F982F8827BC014F
:10033000CD01620F711D811D911D42E0660F771F77
:10034000881F991F4A95D1F70895CF93DF93EC0149
:1003500060E081E00E94890060E082E00E94890004
:1003600060E083E00E94890060E084E00E948900F0
:100370006C2F617085E00E948900BE0175956795BC
:1003800086E00E94890060E087E00E94890060E0CA
:1003900088E0DF91CF910C948900CF93DF93EC013B
:1003A0006881798189E00E9411016A817B818AE0FC
:1003B0000E9411016C817D818BE0DF91CF910C94C3
:1003C0001101FC0124813581232B39F421E0FB014B
:1003D0008081882349F020E007C0808191810E94BC
:1003E000920921E0892BB9F7822F08958F929F926D
:1003F000AF92BF92CF92DF92EF92FF92CF93DF93B3
:10040000EC0162E271E00E94E10161E0811118C03B
:100410006CE271E0CE010E94E10160E0811164C0F4
:1004200069E371E0CE010E94E10160E081116AC0E0
:1004300062E471E0CE010E94E1018823E1F160E015
:1004400080E00E94890061E08CE00E94890061E008
:100450008DE00E9489000E9480014B015C0188EEC2
:10046000C82E83E0D82EE12CF12C0E94800168195F
:1004700079098A099B09683E734081059105A8F3B3
:1004800021E0C21AD108E108F10888EE880E83E065
:10049000981EA11CB11CC114D104E104F10429F778
:1004A000DF91CF91FF90EF90DF90CF90BF90AF9012
:1004B0009F908F9008956AE471E0CE010E94E1015F
:1004C000882351F061E080E00E94890060E08CE0C8
:1004D0000E94890060E0BCCF62E571E0CE010E941D
:1004E000E101882331F061E080E00E94890060E052
:1004F000ABCF6CE571E0CE010E94E101882309F4E5
:10050000AACF61E080E00E94890061E0E0CFFC01B9
:1005100080819181009711F00C94430808950F9306
:100520001F93CF93DF93EC0188819981009759F055
:100530002A813B812617370730F081E0DF91CF9188
:100540001F910F9108958B016F5F7F4F0E94CC0820
:10055000009759F0998388831B830A832C813D81FE
:10056000232B59F7FC011082E8CF80E0E7CFEF9210
:10057000FF920F931F93CF93DF93EC0119821882A0
:100580001B821A821D821C8286179707D9F0FB01F5
:100590000081118101151105A9F0E480F580B701F2
:1005A0000E948F0228813981811113C021153105E4
:1005B00019F0C9010E944308198218821D821C8209
:1005C0001B821A82DF91CF911F910F91FF90EF90C4
:1005D0000895FD82EC82B801C901DF91CF911F918E
:1005E0000F91FF90EF900C949B09EF92FF920F9365
:1005F0001F93CF93DF93EC017B01198218821B823A
:100600001A821D821C82FB0101900020E9F73197BC
:100610008F01061B170BB8010E948F0228813981B8
:10062000811113C02115310519F0C9010E94430839
:10063000198218821D821C821B821A82DF91CF913F
:100640001F910F91FF90EF9008951D830C83B701C8
:10065000C901DF91CF911F910F91FF90EF900C9402
:100660009B091F920F920FB60F9211242F933F9365
:100670008F939F93AF93BF9380917101909172017B
:10068000A0917301B091740130916C0123E0230FAC
:100690002D3758F50196A11DB11D20936C01809353
:1006A000710190937201A0937301B09374018091D2
:1006B0006D0190916E01A0916F01B0917001019652
:1006C000A11DB11D80936D0190936E01A0936F01E8
:1006D000B0937001BF91AF919F918F913F912F91F6
:1006E0000F900FBE0F901F90189526E8230F0296CB
:1006F000A11DB11DD2CFCF93DF93CDB7DEB76297E7
:100700000FB6F894DEBF0FBECDBF789484B582607B
:1007100084BD84B5816084BD85B5826085BD85B5A5
:10072000816085BD80916E00816080936E00109223
:10073000810080918100826080938100809181009E
:10074000816080938100809180008160809380002F
:100750008091B10084608093B1008091B00081608D
:100760008093B00080917A00846080937A008091B9
:100770007A00826080937A0080917A008160809311
:100780007A0080917A00806880937A001092C1008C
:1007900010928A011092890162E08EE00E94D500D9
:1007A00060E08FE00E94D50060E080E10E94D5000B
:1007B00062E081E10E94D50062E082E10E94D50002
:1007C00061E081E00E94D50061E082E00E94D500F6
:1007D00061E083E00E94D50061E084E00E94D500E2
:1007E00061E085E00E94D50061E086E00E94D500CE
:1007F00061E087E00E94D50061E088E00E94D500BA
:1008000061E089E00E94D50061E08AE00E94D500A5
:1008100061E08BE00E94D50061E080E00E94D5009D
:1008200061E08CE00E94D50061E08DE00E94D5007F
:1008300070E060E08EE00E94110170E060E08FE007
:100840000E94110170E060E080E10E94110170E0FF
:1008500060E081E10E94110170E060E082E10E94AD
:10086000110160E081E00E94890060E082E00E9466
:10087000890060E083E00E94890060E084E00E94DB
:10088000890060E085E00E94890060E086E00E94C7
:10089000890060E087E00E94890060E088E00E94B3
:1008A000890060E089E00E94890060E08AE00E949F
:1008B000890060E08BE00E94890060E080E00E9497
:1008C000890060E08CE00E94890060E08DE00E9479
:1008D000890083E10E946E01BC01990F880B990B7E
:1008E000611571058105910511F00E94FE0683E0F6
:1008F000482E512C612C712CCC24C394D12C809186
:10090000890190918A01019759F082E10E946E015C
:10091000893C9105A4F3D0928A01C0928901EFCF5E
:100920008CE191E00E94CD01109288011092870124
:1009300062E271E0CE0101960E94F502CE010196BD
:100940000E94F601CE0101960E94870280918901E2
:1009500090918A010297029708F48FC10E94AF0616
:10096000A30192010E94070726E0269F8001279F8E
:10097000100D11240B581E4FB801CE0101960E9494
:10098000B702CE0101960E94F601CE0101960E94A7
:100990008702B801CE010D960E94B702BE01635FC7
:1009A0007F4FCE0101960E94B702CE0101960E94B0
:1009B000F601CE0101960E94870264E671E0CE0145
:1009C00007960E94F5028FB7F8948090710190907D
:1009D0007201A0907301B09074018FBF8091870164
:1009E0009091880100EE1EE28B30910554F100E5F4
:1009F0001DE2853191052CF100E31AE28F3191055A
:100A000004F100E117E289329105DCF000EF13E216
:100A100083339105B4F000E41FE18D3391058CF030
:100A200000EB1DE18734910564F000E21CE18135A3
:100A300091053CF000E91AE18B35910514F000E0D6
:100A400019E1F12CE12C64E671E0CE0107960E94D9
:100A5000E101882309F48CC00E151F050CF488C031
:100A60002FB7F8948091710190917201A091730158
:100A7000B09174012FBF7C01E818F90881E10E9450
:100A80006E01893C910554F181E090E00E94A5013E
:100A900061E871E0CE0101960E94B7028F819885CE
:100AA000009709F454C069817A816115710509F4D0
:100AB0004CC049855A852D813E814217530708F461
:100AC00044C00E949B098D819E819C878B871E82DA
:100AD0001D82CE0101960E948702B5CF8FE00E9451
:100AE0006E01893E93403CF082E090E00E94A501B7
:100AF0006BE771E0CFCF8FE00E946E01883C9105DB
:100B00009CF380E10E946E01893E93406CF780E186
:100B10000E946E01883C91053CF38EE00E946E01BC
:100B2000863991053CF483E090E00E94A50165E7D9
:100B300071E0B0CF90E080E00E94A50164E671E032
:100B4000CE0101960E94F502A9CF0E944308898137
:100B50009A8198878F838B819C819A8789878D81E1
:100B60009E819C878B871A8219821C821B82AFCF41
:100B70002B853C8589899A892817390709F58F8142
:100B800098856D857E85009759F06115710509F08E
:100B90005AC0232B09F45AC0FC01808190E00DC09B
:100BA0006115710509F452C0232B09F44FC0FB01F4
:100BB000808190E091958195910911E0892B09F050
:100BC00010E0CE0107960E948702CE010D960E948A
:100BD00087021123E9F16CE271E0CE0101960E94D7
:100BE000F502CE0101960E94F601CE0101960E9407
:100BF000870286E191E00E94CD018091870190916A
:100C0000880101969093880180938701833691052E
:100C100009F09CCE62E471E0CE0101960E94F502DB
:100C2000CE0101960E94F601CE0101960E94870234
:100C300080E191E00E94CD0182E090E090938A01F2
:100C40008093890183CE0E949209B7CF11E0B9CF7A
:100C500069E371E0CE0101960E94F502CE01019692
:100C60000E94F601CE0101960E9487028AE091E07F
:100C70000E94CD0183E090E0E1CF80E090E0892BFD
:100C800009F43DCE0E9400003ACE62E571E085E7AE
:100C900091E00E94F5026AE471E08BE791E00E9426
:100CA000F5026CE571E081E891E00C94F50281E8D1
:100CB00091E00E9487028BE791E00E94870285E71E
:100CC00091E00C9487028F929F92AF92BF92CF9245
:100CD000DF92EF92FF92CF93DF93EC0168817981ED
:100CE0008A819B81611571058105910521F464E27A
:100CF00079ED8BE597E02DE133EF41E050E00E9484
:100D0000070749015A019B01AC01A7EAB1E40E941F
:100D100026076B017C01ACEEB4EFA50194010E94A3
:100D20003407C60ED71EE81EF91EF7FE06C081E086
:100D3000C81AD108E10880E8F80AC882D982EA8294
:100D4000FB82C701B6019F77DF91CF91FF90EF90B3
:100D5000DF90CF90BF90AF909F908F9008958F922B
:100D60009F92AF92BF92CF92DF92EF92FF926091EB
:100D700000017091010180910201909103016115C0
:100D800071058105910521F464E279ED8BE597E029
:100D90002DE133EF41E050E00E94070749015A017D
:100DA0009B01AC01A7EAB1E40E9426076B017C011C
:100DB000ACEEB4EFA50194010E943407C60ED71E15
:100DC000E81EF91EF7FE06C081E0C81AD108E10846
:100DD00080E8F80AC0920001D0920101E09202017D
:100DE000F0920301C701B6019F77FF90EF90DF906B
:100DF000CF90BF90AF909F908F9008956093000127
:100E00007093010180930201909303010895052ED0
:100E100097FB1EF400940E941E0757FD07D00E9406
:100E2000700707FC03D04EF40C941E0750954095B4
:100E3000309521953F4F4F4F5F4F08959095809586
:100E4000709561957F4F8F4F9F4F08950E94920735
:100E5000A59F900DB49F900DA49F800D911D11240E
:100E60000895B7FF0C9426070E942607821B930B58
:100E700008952F923F924F925F926F927F928F923E
:100E80009F92AF92BF92CF92DF92EF92FF920F9319
:100E90001F93CF93DF93CDB7DEB7CA1BDB0B0FB623
:100EA000F894DEBF0FBECDBF09942A8839884888E0
:100EB0005F846E847D848C849B84AA84B984C88476
:100EC000DF80EE80FD800C811B81AA81B981CE0F6D
:100ED000D11D0FB6F894DEBF0FBECDBFED01089552
:100EE000A1E21A2EAA1BBB1BFD010DC0AA1FBB1F2E
:100EF000EE1FFF1FA217B307E407F50720F0A21BA0
:100F0000B30BE40BF50B661F771F881F991F1A940C
:100F100069F760957095809590959B01AC01BD0136
:100F2000CF010895A29FB001B39FC001A39F700D90
:100F3000811D1124911DB29F700D811D1124911DE1
:100F40000895EE0FFF1F0590F491E02D09940F9383
:100F50001F93CF93DF938230910510F482E090E0ED
:100F6000E0918D01F0918E0130E020E0B0E0A0E052
:100F7000309799F42115310509F44AC0281B390B23
:100F800024303105D8F58A819B816115710589F17D
:100F9000FB0193838283FE0111C040815181028154
:100FA000138148175907E0F04817590799F410972B
:100FB00061F012960C93129713961C933296CF0100
:100FC000DF91CF911F910F91089500938D011093A0
:100FD0008E01F4CF2115310551F04217530738F037
:100FE000A901DB019A01BD01DF01F801C1CFEF01C9
:100FF000F9CF90938E0180938D01CDCFFE01E20F4A
:10100000F31F819391932250310939832883D7CFDD
:1010100020918B0130918C01232B41F4209106010A
:101020003091070130938C0120938B0120910401B2
:10103000309105012115310541F42DB73EB740919E
:10104000080150910901241B350BE0918B01F091AF
:101050008C01E217F307A0F42E1B3F0B281739076A
:1010600078F0AC014E5F5F4F2417350748F04E0F04
:101070005F1F50938C0140938B01819391939FCF7D
:10108000F0E0E0E09CCFCF93DF930097E9F0FC0124
:10109000329713821282A0918D01B0918E01ED01E1
:1010A00030E020E01097A1F420813181820F931F5E
:1010B00020918B0130918C012817390709F061C00C
:1010C000F0938C01E0938B01DF91CF910895EA01B9
:1010D000CE17DF07E8F54A815B819E014115510576
:1010E000B1F7E901FB83EA8349915991C40FD51FF8
:1010F000EC17FD0761F4808191810296840F951FA2
:10110000E90199838883828193819B838A83F0E0BC
:10111000E0E012968D919C9113970097B9F52D916F
:101120003C911197CD010296820F931F20918B0164
:1011300030918C012817390739F6309751F5109204
:101140008E0110928D01B0938C01A0938B01BCCFC6
:10115000D383C28340815181840F951FC817D9075B
:1011600061F44E5F5F4F88819981480F591F518309
:1011700040838A819B81938382832115310509F005
:10118000B0CFF0938E01E0938D019ECFFD01DC0185
:10119000C0CF13821282D7CFB0E0A0E0E2EDF8E03A
:1011A0000C943B078C01009751F4CB010E94A707D8
:1011B0008C01C801CDB7DEB7E0E10C945707FC0104
:1011C000E60FF71F9C0122503109E217F30708F4DC
:1011D0009DC0D901CD91DC911197C617D70798F022
:1011E000C530D10530F3CE0104978617970708F371
:1011F000C61BD70B2297C193D1936D937C93CF01DC
:101200000E944308D6CF5B01AC1ABD0A4C018C0E7C
:101210009D1EA0918D01B0918E01512C412CF12C7D
:10122000E12C109731F580918B0190918C018815FC
:10123000990509F05CC04616570608F058C0809121
:10124000040190910501009741F48DB79EB740913C
:10125000080150910901841B950BE817F90708F064
:1012600055C0F0938C01E0938B01F9017183608389
:10127000A0CF8D919C91119712966C901297139616
:101280007C901397A815B90559F56C0142E0C40E7E
:10129000D11CCA14DB0420F1AC014A195B09DA0144
:1012A0001296159780F06282738251834083D90130
:1012B0006D937C93E114F10471F0D7011396FC93C4
:1012C000EE93129776CF22968C0F9D1FF901918392
:1012D0008083F301EFCFF0938E01E0938D0169CF0E
:1012E0004816590608F42C017D01D3019ACFCB0191
:1012F0000E94A7077C01009749F0AE01B8010E9447
:101300008909C8010E944308870153CF10E000E01B
:1013100050CFFB01DC0102C001900D9241505040C2
:10132000D8F70895FB01DC018D910190801901101F
:10133000D9F3990B0895FB01DC0101900D92002077
:10134000E1F7089510E0CDE5D0E004C0FE010E9471
:0E135000A1072196CE35D107C9F7F894FFCF3B
:10135E000100000000008F018000FF00000000006F
:10136E00FF00FF0000000000FF000000930070006F
:10137E00DB00537461727447616D6500436F727266
:10138E00656374496E707574004C6F736547616D5B
:10139E00650057696E47616D6500466C69636B4900
:1013AE00740053717565657A654974005368616B95
:0C13BE00654974004E6F7468696E67002A
:00000001FF
